{
  "contractName": "Athenomics",
  "abi": [
    {
      "inputs": [],
      "payable": false,
      "stateMutability": "nonpayable",
      "type": "constructor"
    },
    {
      "constant": true,
      "inputs": [
        {
          "internalType": "uint256",
          "name": "",
          "type": "uint256"
        }
      ],
      "name": "genomes",
      "outputs": [
        {
          "internalType": "address",
          "name": "owner",
          "type": "address"
        },
        {
          "internalType": "string",
          "name": "hash",
          "type": "string"
        },
        {
          "internalType": "string",
          "name": "source_type",
          "type": "string"
        }
      ],
      "payable": false,
      "stateMutability": "view",
      "type": "function"
    },
    {
      "constant": true,
      "inputs": [],
      "name": "genomesCount",
      "outputs": [
        {
          "internalType": "uint256",
          "name": "",
          "type": "uint256"
        }
      ],
      "payable": false,
      "stateMutability": "view",
      "type": "function"
    },
    {
      "constant": true,
      "inputs": [
        {
          "internalType": "uint256",
          "name": "",
          "type": "uint256"
        }
      ],
      "name": "members",
      "outputs": [
        {
          "internalType": "uint256",
          "name": "id",
          "type": "uint256"
        },
        {
          "internalType": "string",
          "name": "institution",
          "type": "string"
        },
        {
          "internalType": "address",
          "name": "memAddress",
          "type": "address"
        }
      ],
      "payable": false,
      "stateMutability": "view",
      "type": "function"
    },
    {
      "constant": true,
      "inputs": [],
      "name": "membersCount",
      "outputs": [
        {
          "internalType": "uint256",
          "name": "",
          "type": "uint256"
        }
      ],
      "payable": false,
      "stateMutability": "view",
      "type": "function"
    },
    {
      "constant": false,
      "inputs": [
        {
          "internalType": "string",
          "name": "_hash",
          "type": "string"
        },
        {
          "internalType": "string",
          "name": "_source",
          "type": "string"
        }
      ],
      "name": "addGenome",
      "outputs": [],
      "payable": false,
      "stateMutability": "nonpayable",
      "type": "function"
    },
    {
      "constant": false,
      "inputs": [
        {
          "internalType": "string",
          "name": "_ins",
          "type": "string"
        }
      ],
      "name": "addMember",
      "outputs": [],
      "payable": false,
      "stateMutability": "nonpayable",
      "type": "function"
    }
  ],
  "bytecode": "0x608060405234801561001057600080fd5b50610924806100206000396000f3fe608060405234801561001057600080fd5b50600436106100625760003560e01c8063297f9af014610067578063537a567c146100815780635daf08ca14610089578063918f96871461013e578063c7bebdfd146101e6578063eb8c3b65146102fa575b600080fd5b61006f610427565b60408051918252519081900360200190f35b61006f61042d565b6100a66004803603602081101561009f57600080fd5b5035610433565b6040518084815260200180602001836001600160a01b03166001600160a01b03168152602001828103825284818151815260200191508051906020019080838360005b838110156101015781810151838201526020016100e9565b50505050905090810190601f16801561012e5780820380516001836020036101000a031916815260200191505b5094505050505060405180910390f35b6101e46004803603602081101561015457600080fd5b81019060208101813564010000000081111561016f57600080fd5b82018360208201111561018157600080fd5b803590602001918460018302840111640100000000831117156101a357600080fd5b91908080601f0160208091040260200160405190810160405280939291908181526020018383808284376000920191909152509295506104e7945050505050565b005b610203600480360360208110156101fc57600080fd5b5035610570565b60405180846001600160a01b03166001600160a01b031681526020018060200180602001838103835285818151815260200191508051906020019080838360005b8381101561025c578181015183820152602001610244565b50505050905090810190601f1680156102895780820380516001836020036101000a031916815260200191505b50838103825284518152845160209182019186019080838360005b838110156102bc5781810151838201526020016102a4565b50505050905090810190601f1680156102e95780820380516001836020036101000a031916815260200191505b509550505050505060405180910390f35b6101e46004803603604081101561031057600080fd5b81019060208101813564010000000081111561032b57600080fd5b82018360208201111561033d57600080fd5b8035906020019184600183028401116401000000008311171561035f57600080fd5b91908080601f01602080910402602001604051908101604052809392919081815260200183838082843760009201919091525092959493602081019350359150506401000000008111156103b257600080fd5b8201836020820111156103c457600080fd5b803590602001918460018302840111640100000000831117156103e657600080fd5b91908080601f0160208091040260200160405190810160405280939291908181526020018383808284376000920191909152509295506106b3945050505050565b60035481565b60015481565b60026020818152600092835260409283902080546001808301805487519281161561010002600019011695909504601f81018590048502820185019096528581529094919390929091908301828280156104ce5780601f106104a3576101008083540402835291602001916104ce565b820191906000526020600020905b8154815290600101906020018083116104b157829003601f168201915b505050600290930154919250506001600160a01b031683565b6003805460010190556104f8610774565b50604080516060810182526003548082526020808301858152338486015260009283526002825293909120825181559251805192938493909261054292600185019291019061079e565b5060409190910151600290910180546001600160a01b0319166001600160a01b039092169190911790555050565b600060208181529181526040908190208054600180830180548551600261010094831615949094026000190190911692909204601f81018790048702830187019095528482526001600160a01b0390921694929390928301828280156106175780601f106105ec57610100808354040283529160200191610617565b820191906000526020600020905b8154815290600101906020018083116105fa57829003601f168201915b50505060028085018054604080516020601f60001961010060018716150201909416959095049283018590048502810185019091528181529596959450909250908301828280156106a95780601f1061067e576101008083540402835291602001916106a9565b820191906000526020600020905b81548152906001019060200180831161068c57829003601f168201915b5050505050905083565b60018054810190556106c361081c565b506040805160808101825233815260208082018581528284018590528351600080825281840186526060850191909152600180548252818452949020835181546001600160a01b0319166001600160a01b03909116178155905180519394859492936107349391850192019061079e565b506040820151805161075091600284019160209091019061079e565b506060820151805161076c91600384019160209091019061084d565b505050505050565b6040518060600160405280600081526020016060815260200160006001600160a01b031681525090565b828054600181600116156101000203166002900490600052602060002090601f016020900481019282601f106107df57805160ff191683800117855561080c565b8280016001018555821561080c579182015b8281111561080c5782518255916020019190600101906107f1565b506108189291506108ae565b5090565b604051806080016040528060006001600160a01b031681526020016060815260200160608152602001606081525090565b8280548282559060005260206000209081019282156108a2579160200282015b828111156108a257825182546001600160a01b0319166001600160a01b0390911617825560209092019160019091019061086d565b506108189291506108cb565b6108c891905b8082111561081857600081556001016108b4565b90565b6108c891905b808211156108185780546001600160a01b03191681556001016108d156fea265627a7a7231582015788e406b9007fc7afbe483e61e6d9a1a067df86078eec55c1527760a01ba3364736f6c63430005100032",
  "source": "pragma solidity ^0.5.16;\r\n\r\ncontract Athenomics {\r\n\r\n\t// Create a Genome container\r\n\tstruct Genome {\r\n\t\taddress owner;\r\n\t\tstring hash;\r\n\t\tstring source_type;\r\n\t\taddress[] shared;\r\n\t}\r\n\r\n\tstruct Member {\r\n\t\tuint id;\r\n\t\tstring institution;\r\n\t\taddress memAddress;\r\n\t}\r\n\r\n\t// additions to mappings and address arrays changes state of contract.\r\n\t// changing state of contract means writing to blockchain\r\n\t\r\n\t// mapping of publically available genomes to be bid on via id\r\n\tmapping(uint => Genome) public genomes;\r\n\tuint public genomesCount ;\r\n\r\n\t// pubGenomesCount + privGenomesCount == genomesCount;\r\n\r\n\t// list of addresses of entities that may request genomes\r\n\tmapping(uint => Member) public members;\r\n\tuint public membersCount;\r\n\r\n\r\n\t// voted event\r\n\t// keep for reference\r\n\t// event votedEvent (\r\n //        uint indexed _candidateId\r\n //    );\r\n\r\n\tconstructor() public {\r\n\t}\r\n\r\n\t// add genome to genome mapping\r\n\tfunction addGenome(string memory _hash, string memory _source) public {\r\n\t\t\t++genomesCount;\r\n\t\t\tGenome memory _genome = Genome(msg.sender, _hash, _source, new address[](0));\r\n\t\t\tgenomes[genomesCount] = _genome;\r\n\t}\r\n\t// add member to member mapping\r\n\tfunction addMember(string memory _ins) public {\r\n\t\t++membersCount;\r\n\t\tMember memory _member = Member(membersCount, _ins, msg.sender);\r\n\t\tmembers[membersCount] = _member;\r\n\t}\r\n\r\n\t// Add candidates to candidates mapping\r\n\t// function addCandidate(string memory _name) private {\r\n\t// \t++candidatesCount;\r\n\t// \tcandidates[candidatesCount] = Candidate(candidatesCount, _name, 0);\r\n\t// }\r\n\r\n\t// function vote(uint _candidateId) public {\r\n\t// \t// check for voted before\r\n\t// \trequire(!voters[msg.sender]);\r\n\t// \t// check for valid candidate\r\n\t// \trequire(_candidateId > 0 && _candidateId <= candidatesCount); \r\n\t// \t// record that voter has voted\r\n\t// \t// metadata that gets passed (msg), account from which function call sent (sender)\r\n\t// \tvoters[msg.sender] =true;\r\n\t// \t// update candidate voteCount\r\n\t// \tcandidates[_candidateId].voteCount++;\r\n\t// }\r\n}",
  "sourcePath": "C:\\Users\\ManyMoons\\git_repo\\Athenomics\\src\\contracts\\Athenomics.sol",
  "compiler": {
    "name": "solc",
    "version": "0.5.16+commit.9c3226ce.Emscripten.clang"
  },
  "schemaVersion": "3.0.23",
  "updatedAt": "2020-04-01T03:06:01.994Z",
  "networkType": "ethereum",
  "devdoc": {
    "methods": {}
  },
  "userdoc": {
    "methods": {}
  }
}