{
  "contractName": "Athenomics",
  "abi": [
    {
      "inputs": [],
      "payable": false,
      "stateMutability": "nonpayable",
      "type": "constructor"
    },
    {
      "constant": true,
      "inputs": [
        {
          "internalType": "uint256",
          "name": "",
          "type": "uint256"
        }
      ],
      "name": "genomes",
      "outputs": [
        {
          "internalType": "address",
          "name": "owner",
          "type": "address"
        },
        {
          "internalType": "string",
          "name": "hash",
          "type": "string"
        },
        {
          "internalType": "string",
          "name": "source_type",
          "type": "string"
        }
      ],
      "payable": false,
      "stateMutability": "view",
      "type": "function"
    },
    {
      "constant": true,
      "inputs": [],
      "name": "genomesCount",
      "outputs": [
        {
          "internalType": "uint256",
          "name": "",
          "type": "uint256"
        }
      ],
      "payable": false,
      "stateMutability": "view",
      "type": "function"
    },
    {
      "constant": true,
      "inputs": [
        {
          "internalType": "uint256",
          "name": "",
          "type": "uint256"
        }
      ],
      "name": "members",
      "outputs": [
        {
          "internalType": "uint256",
          "name": "id",
          "type": "uint256"
        },
        {
          "internalType": "string",
          "name": "institution",
          "type": "string"
        },
        {
          "internalType": "address",
          "name": "memAddress",
          "type": "address"
        }
      ],
      "payable": false,
      "stateMutability": "view",
      "type": "function"
    },
    {
      "constant": true,
      "inputs": [],
      "name": "membersCount",
      "outputs": [
        {
          "internalType": "uint256",
          "name": "",
          "type": "uint256"
        }
      ],
      "payable": false,
      "stateMutability": "view",
      "type": "function"
    },
    {
      "constant": false,
      "inputs": [
        {
          "internalType": "string",
          "name": "_hash",
          "type": "string"
        },
        {
          "internalType": "string",
          "name": "_source",
          "type": "string"
        }
      ],
      "name": "addGenome",
      "outputs": [],
      "payable": false,
      "stateMutability": "nonpayable",
      "type": "function"
    },
    {
      "constant": false,
      "inputs": [
        {
          "internalType": "string",
          "name": "_ins",
          "type": "string"
        }
      ],
      "name": "addMember",
      "outputs": [],
      "payable": false,
      "stateMutability": "nonpayable",
      "type": "function"
    }
  ],
  "bytecode": "0x60806040523480156200001157600080fd5b506060604051806109e001604052806109af8152602001620010666109af9139905060606040518060400160405280600b81526020017f686f6d6f2073617069656e00000000000000000000000000000000000000000081525090506200007f8282620000cd60201b60201c565b620000c56040518060400160405280601881526020017f4d656d6f7269616c20536c6f616e204b6574746572696e6700000000000000008152506200021260201b60201c565b5050620004e7565b60016000815460010191905081905550620000e7620002ee565b60405180608001604052803373ffffffffffffffffffffffffffffffffffffffff16815260200184815260200183815260200160006040519080825280602002602001820160405280156200014b5781602001602082028038833980820191505090505b50815250905080600080600154815260200190815260200160002060008201518160000160006101000a81548173ffffffffffffffffffffffffffffffffffffffff021916908373ffffffffffffffffffffffffffffffffffffffff1602179055506020820151816001019080519060200190620001cb9291906200032c565b506040820151816002019080519060200190620001ea9291906200032c565b50606082015181600301908051906020019062000209929190620003b3565b50905050505050565b600360008154600101919050819055506200022c62000442565b604051806060016040528060035481526020018381526020013373ffffffffffffffffffffffffffffffffffffffff168152509050806002600060035481526020019081526020016000206000820151816000015560208201518160010190805190602001906200029f9291906200032c565b5060408201518160020160006101000a81548173ffffffffffffffffffffffffffffffffffffffff021916908373ffffffffffffffffffffffffffffffffffffffff1602179055509050505050565b6040518060800160405280600073ffffffffffffffffffffffffffffffffffffffff1681526020016060815260200160608152602001606081525090565b828054600181600116156101000203166002900490600052602060002090601f016020900481019282601f106200036f57805160ff1916838001178555620003a0565b82800160010185558215620003a0579182015b828111156200039f57825182559160200191906001019062000382565b5b509050620003af919062000479565b5090565b8280548282559060005260206000209081019282156200042f579160200282015b828111156200042e5782518260006101000a81548173ffffffffffffffffffffffffffffffffffffffff021916908373ffffffffffffffffffffffffffffffffffffffff16021790555091602001919060010190620003d4565b5b5090506200043e9190620004a1565b5090565b60405180606001604052806000815260200160608152602001600073ffffffffffffffffffffffffffffffffffffffff1681525090565b6200049e91905b808211156200049a57600081600090555060010162000480565b5090565b90565b620004e491905b80821115620004e057600081816101000a81549073ffffffffffffffffffffffffffffffffffffffff021916905550600101620004a8565b5090565b90565b610b6f80620004f76000396000f3fe608060405234801561001057600080fd5b50600436106100625760003560e01c8063297f9af014610067578063537a567c146100855780635daf08ca146100a3578063918f968714610184578063c7bebdfd1461023f578063eb8c3b6514610385575b600080fd5b61006f6104d7565b6040518082815260200191505060405180910390f35b61008d6104dd565b6040518082815260200191505060405180910390f35b6100cf600480360360208110156100b957600080fd5b81019080803590602001909291905050506104e3565b60405180848152602001806020018373ffffffffffffffffffffffffffffffffffffffff1673ffffffffffffffffffffffffffffffffffffffff168152602001828103825284818151815260200191508051906020019080838360005b8381101561014757808201518184015260208101905061012c565b50505050905090810190601f1680156101745780820380516001836020036101000a031916815260200191505b5094505050505060405180910390f35b61023d6004803603602081101561019a57600080fd5b81019080803590602001906401000000008111156101b757600080fd5b8201836020820111156101c957600080fd5b803590602001918460018302840111640100000000831117156101eb57600080fd5b91908080601f016020809104026020016040519081016040528093929190818152602001838380828437600081840152601f19601f8201169050808301925050505050505091929192905050506105c5565b005b61026b6004803603602081101561025557600080fd5b810190808035906020019092919050505061069d565b604051808473ffffffffffffffffffffffffffffffffffffffff1673ffffffffffffffffffffffffffffffffffffffff1681526020018060200180602001838103835285818151815260200191508051906020019080838360005b838110156102e15780820151818401526020810190506102c6565b50505050905090810190601f16801561030e5780820380516001836020036101000a031916815260200191505b50838103825284818151815260200191508051906020019080838360005b8381101561034757808201518184015260208101905061032c565b50505050905090810190601f1680156103745780820380516001836020036101000a031916815260200191505b509550505050505060405180910390f35b6104d56004803603604081101561039b57600080fd5b81019080803590602001906401000000008111156103b857600080fd5b8201836020820111156103ca57600080fd5b803590602001918460018302840111640100000000831117156103ec57600080fd5b91908080601f016020809104026020016040519081016040528093929190818152602001838380828437600081840152601f19601f8201169050808301925050505050505091929192908035906020019064010000000081111561044f57600080fd5b82018360208201111561046157600080fd5b8035906020019184600183028401116401000000008311171561048357600080fd5b91908080601f016020809104026020016040519081016040528093929190818152602001838380828437600081840152601f19601f820116905080830192505050505050509192919290505050610817565b005b60035481565b60015481565b6002602052806000526040600020600091509050806000015490806001018054600181600116156101000203166002900480601f0160208091040260200160405190810160405280929190818152602001828054600181600116156101000203166002900480156105955780601f1061056a57610100808354040283529160200191610595565b820191906000526020600020905b81548152906001019060200180831161057857829003601f168201915b5050505050908060020160009054906101000a900473ffffffffffffffffffffffffffffffffffffffff16905083565b600360008154600101919050819055506105dd610953565b604051806060016040528060035481526020018381526020013373ffffffffffffffffffffffffffffffffffffffff1681525090508060026000600354815260200190815260200160002060008201518160000155602082015181600101908051906020019061064e92919061098a565b5060408201518160020160006101000a81548173ffffffffffffffffffffffffffffffffffffffff021916908373ffffffffffffffffffffffffffffffffffffffff1602179055509050505050565b60006020528060005260406000206000915090508060000160009054906101000a900473ffffffffffffffffffffffffffffffffffffffff1690806001018054600181600116156101000203166002900480601f01602080910402602001604051908101604052809291908181526020018280546001816001161561010002031660029004801561076f5780601f106107445761010080835404028352916020019161076f565b820191906000526020600020905b81548152906001019060200180831161075257829003601f168201915b505050505090806002018054600181600116156101000203166002900480601f01602080910402602001604051908101604052809291908181526020018280546001816001161561010002031660029004801561080d5780601f106107e25761010080835404028352916020019161080d565b820191906000526020600020905b8154815290600101906020018083116107f057829003601f168201915b5050505050905083565b6001600081546001019190508190555061082f610a0a565b60405180608001604052803373ffffffffffffffffffffffffffffffffffffffff16815260200184815260200183815260200160006040519080825280602002602001820160405280156108925781602001602082028038833980820191505090505b50815250905080600080600154815260200190815260200160002060008201518160000160006101000a81548173ffffffffffffffffffffffffffffffffffffffff021916908373ffffffffffffffffffffffffffffffffffffffff160217905550602082015181600101908051906020019061091092919061098a565b50604082015181600201908051906020019061092d92919061098a565b50606082015181600301908051906020019061094a929190610a48565b50905050505050565b60405180606001604052806000815260200160608152602001600073ffffffffffffffffffffffffffffffffffffffff1681525090565b828054600181600116156101000203166002900490600052602060002090601f016020900481019282601f106109cb57805160ff19168380011785556109f9565b828001600101855582156109f9579182015b828111156109f85782518255916020019190600101906109dd565b5b509050610a069190610ad2565b5090565b6040518060800160405280600073ffffffffffffffffffffffffffffffffffffffff1681526020016060815260200160608152602001606081525090565b828054828255906000526020600020908101928215610ac1579160200282015b82811115610ac05782518260006101000a81548173ffffffffffffffffffffffffffffffffffffffff021916908373ffffffffffffffffffffffffffffffffffffffff16021790555091602001919060010190610a68565b5b509050610ace9190610af7565b5090565b610af491905b80821115610af0576000816000905550600101610ad8565b5090565b90565b610b3791905b80821115610b3357600081816101000a81549073ffffffffffffffffffffffffffffffffffffffff021916905550600101610afd565b5090565b9056fea265627a7a723158205f7318809b77466fb7b5b844f953de37249ff0210d4d6d060dcf6a33279b3b8b64736f6c6343000510003243545447435443474347474147414741474741474354414747414743435443474743434141544747474147434347474347545447545447474147474343414347474347474347434147434343434141414743474147434741414743544147474754434743434743434143544743434743414747414747434754474147474747415441414141414341545443414741544747434147415443414341475454545454434147415447474747545443435454434147415454434347544747414147435447435441414141415447434141475441414341434147414141414743544341434147415443414747544741544743414741415443435443474147545443544747434147435454544143414747414743474143545447414341415447544343435443414341434343435454434341474354414341544347414141435454544143435441414147434147544141414141474141474141545441415447434154544741414143414143545443414747544741474154475447435443414341544147414147434341414754544354415447414147414747544143415447414354544747414141474141414754415447434147434743544154414343414743435443544354545447414341414741474141474147414154545441544341434347474347415447545447414143434141434147415447434747414154434747414154474743414341475447414141415447414147414747414147414741414154544747435447474147414341544741414141475441414147544147544347544341434147414141414147434147434747434141434747435447414147414743434147415443434341414147474141545443434147414754544354474754545441434341544354544341474141415447544747414341544743544741475447414154544147544343414747414154415447415447414143434141544354544741414143414343544743414747415441545441414147544741414154545454435447414343435447474143414743435441544754435454545447544754544147414754544343414354545447414143434341414347414354414354545441434341414354434147544343544741434141414141434354414341414741544741414154434147414143434147415441414747435447415443434354545454434354545447414147475443435447414741545447544747414354475447414347474754475441435441545447414354474741414741414147474141414741415447545441435447544341414141434341544341414741414141414743414741414743415441414747475443474147474341435447545441474141434141545441434741414143414147544143434341415447414754434354545454544341414354544354544341415443434154544741414147434154434347474747415447474147414154434143544747415447414147415454435447414154544341434154544147434354435447415454545447414141545447474143414354545454544343475447414743474741544147544343434743474747435447544743544754414354544341435447474747414747434341544147414147415447415447414341415454545447414147414147475447414147414147474147414147414747414747414154544147414147475447414347414747414747474147414147414347414747415447415447434747414141545441414343434341414741414747414143434341474343414743434747434747414154474341414743414743414754414747414147434747414747434747475447434354474743414741434347474354475443474747414354434341474743435447544747474347474747434354434747544343545447434347434147434143414154434343475447474143414741474354544143544343415443544141435443475454545443414147544743415447415454545443414354545443414354545454434354545454544343545441545441545454544743545441414354544754414341475447474341414354474141415447434154545443414741414154414747414747545454434754434341474341434343544354474341474343545447475447434354475441474354435447474143545443434354474747434354545443434354475447474741474747434343544754414741434341434154434147474754474747475447474747475443414354544747434141414141474747434347414747544354474754474154475447475454434343414747415443544747414143435443544343434143434343544343544743414754544747414354474141545443545443434354545443415443434741414741414143434341435454474354475454544343414743434743544741415443544743544741475447544743414743435447434154434143435447435447544154474343474154434154435443414741414147474743544754475441474147544147474743434354475454435443435454414747415447545447435454435454474154545454545454545454545454545441474747475447474754434147474754544754474143414341434341474343434147475447414741474354474354474347474754434143435443415441545454415454544154434343545443545447434354475447414747414354474347474354545454434743544754474743544347544343545441414347545454435447414143434143435454474754474343435447414743414747414147415447544743434143545443435441474341474743474341414747434354475447434747414147414141434743434743544343435447434341434341474747435447414147415447434741474343434754434354434154474143474341474743474343414343435447435447434347474147434347474743545443474743414754435454435443434143544741474747414354474747435447474741414754434354474347545454434147544747414743475441544741474347544341414754434354474354545443544341475441474343434341545447434747474743434343414343415454434154434354475443544741414747544343544747475454544747544754474143434743545447474347474354474754474747544747474754545454434141475447474754474143474743474354435443434747434147434347474747415447474343475447544343474341435447414343414747434354475447474147414754474354434747434354414143435454414741414341434154545447544141435447414154414341475447545454544341415454544754414341474141544147545441474141544154544354415454414141475447475447414141434154544741475443414743",
  "source": "pragma solidity ^0.5.16;\n\ncontract Athenomics {\n\n\t// Create a Genome container\n\tstruct Genome {\n\t\taddress owner;\n\t\tstring hash;\n\t\tstring source_type;\n\t\taddress[] shared;\n\t}\n\n\tstruct Member {\n\t\tuint id;\n\t\tstring institution;\n\t\taddress memAddress;\n\t}\n\n\t// additions to mappings and address arrays changes state of contract.\n\t// changing state of contract means writing to blockchain\n\t\n\t// mapping of publically available genomes to be bid on via id\n\tmapping(uint => Genome) public genomes;\n\tuint public genomesCount ;\n\n\t// pubGenomesCount + privGenomesCount == genomesCount;\n\n\t// list of addresses of entities that may request genomes\n\tmapping(uint => Member) public members;\n\tuint public membersCount;\n\n\n\t// voted event\n\t// keep for reference\n\t// event votedEvent (\n //        uint indexed _candidateId\n //    );\n\n\tconstructor() public {\n\t\tstring memory pew = \"CTTGCTCGCGGAGAGAGGAGCTAGGAGCCTCGGCCAATGGGAGCCGGCGTTGTTGGAGGCCACGGCGGCGCAGCCCCAAAGCGAGCGAAGCTAGGGTCGCCGCCACTGCCGCAGGAGGCGTGAGGGGATAAAAACATTCAGATGGCAGATCACAGTTTTTCAGATGGGGTTCCTTCAGATTCCGTGGAAGCTGCTAAAAATGCAAGTAACACAGAAAAGCTCACAGATCAGGTGATGCAGAATCCTCGAGTTCTGGCAGCTTTACAGGAGCGACTTGACAATGTCCCTCACACCCCTTCCAGCTACATCGAAACTTTACCTAAAGCAGTAAAAAGAAGAATTAATGCATTGAAACAACTTCAGGTGAGATGTGCTCACATAGAAGCCAAGTTCTATGAAGAGGTACATGACTTGGAAAGAAAGTATGCAGCGCTATACCAGCCTCTCTTTGACAAGAGAAGAGAATTTATCACCGGCGATGTTGAACCAACAGATGCGGAATCGGAATGGCACAGTGAAAATGAAGAGGAAGAGAAATTGGCTGGAGACATGAAAAGTAAAGTAGTCGTCACAGAAAAAGCAGCGGCAACGGCTGAAGAGCCAGATCCCAAAGGAATTCCAGAGTTCTGGTTTACCATCTTCAGAAATGTGGACATGCTGAGTGAATTAGTCCAGGAATATGATGAACCAATCTTGAAACACCTGCAGGATATTAAAGTGAAATTTTCTGACCCTGGACAGCCTATGTCTTTTGTGTTAGAGTTCCACTTTGAACCCAACGACTACTTTACCAACTCAGTCCTGACAAAAACCTACAAGATGAAATCAGAACCAGATAAGGCTGATCCCTTTTCCTTTGAAGGTCCTGAGATTGTGGACTGTGACGGGTGTACTATTGACTGGAAGAAAGGAAAGAATGTTACTGTCAAAACCATCAAGAAAAAGCAGAAGCATAAGGGTCGAGGCACTGTTAGAACAATTACGAAACAAGTACCCAATGAGTCCTTTTTCAACTTCTTCAATCCATTGAAAGCATCCGGGGATGGAGAATCACTGGATGAAGATTCTGAATTCACATTAGCCTCTGATTTTGAAATTGGACACTTTTTCCGTGAGCGGATAGTCCCGCGGGCTGTGCTGTACTTCACTGGGGAGGCCATAGAAGATGATGACAATTTTGAAGAAGGTGAAGAAGGAGAAGAGGAGGAATTAGAAGGTGACGAGGAGGGAGAAGACGAGGATGATGCGGAAATTAACCCCAAGAAGGAACCCAGCCAGCCGGCGGAATGCAAGCAGCAGTAGGAAGCGGAGGCGGGTGCCTGGCAGACCGGCTGTCGGGACTCCAGGCCTGTGGGCGGGGCCTCGGTCCTTGCCGCAGCACAATCCCGTGGACAGAGCTTACTCCATCTAACTCGTTTTCAAGTGCATGATTTTCACTTTCACTTTTCCTTTTTCCTTATTATTTTGCTTAACTTGTACAGTGGCAACTGAAATGCATTTCAGAAATAGGAGGTTTCGTCCAGCACCCTCTGCAGCCTTGGTGCCTGTAGCTCTGGACTTCCCTGGGCCTTTCCCTGTGGGAGGGCCCTGTAGACCACATCAGGGTGGGGTGGGGGTCACTTGGCAAAAAGGGCCGAGGTCTGGTGATGTGGTTCCCAGGATCTGGAACCTCTCCCACCCCTCCTGCAGTTGGACTGAATTCTTCCCTTTCATCCGAAGAAACCCACTTGCTGTTTCCAGCCGCTGAATCTGCTGAGTGTGCAGCCTGCATCACCTGCTGTATGCCGATCATCTCAGAAAGGGCTGTGTAGAGTAGGGCCCTGTTCTCCTTAGGATGTTGCTTCTTGATTTTTTTTTTTTTTTAGGGGTGGGTCAGGGTTGTGACACACCAGCCCAGGTGAGAGCTGCTGCGGGTCACCTCATATTTATTTATCCCTTCTTGCCTGTGAGGACTGCGGCTTTTCGCTGTGGCTCGTCCTTAACGTTTCTGAACCACCTTGGTGCCCTGAGCAGGAAGATGTGCCACTTCCTAGCAGGCGCAAGGCCTGTGCGGAAGAAACGCCGCTCCCTGCCACCAGGGCTGAAGATGCGAGCCCGTCCTCATGACGCAGGCGCCACCCTGCTGCCGGAGCCGGGCTTCGGCAGTCTTCTCCACTGAGGGACTGGGCTGGGAAGTCCTGCGTTTCAGTGGAGCGTATGAGCGTCAAGTCCTGCTTTCTCAGTAGCCCCATTGCGGGGCCCCACCATTCATCCTGTCTGAAGGTCCTGGGTTTGGTGTGACCGCTTGGCGGCTGGTGGGTGGGGTTTTCAAGTGGGTGACGGCGCTCTCCGGCAGCCGGGGATGGCCGTGTCCGCACTGACCAGGCCTGTGGAGAGTGCTCGGCCTAACCTTAGAACACATTTGTAACTGAATACAGTGTTTTCAATTTGTACAGAATAGTTAGAATATTCTATTAAAGTGGTGAAACATTGAGTCAGC\";\n\t\tstring memory source = \"homo sapien\";\n\t\taddGenome(pew, source);\n\t\taddMember(\"Memorial Sloan Kettering\");\n\t}\n\n\t// add genome to genome mapping\n\tfunction addGenome(string memory _hash, string memory _source) public {\n\t\t\t++genomesCount;\n\t\t\tGenome memory _genome = Genome(msg.sender, _hash, _source, new address[](0));\n\t\t\tgenomes[genomesCount] = _genome;\n\t}\n\t// add member to member mapping\n\tfunction addMember(string memory _ins) public {\n\t\t++membersCount;\n\t\tMember memory _member = Member(membersCount, _ins, msg.sender);\n\t\tmembers[membersCount] = _member;\n\t}\n\n\t// Add candidates to candidates mapping\n\t// function addCandidate(string memory _name) private {\n\t// \t++candidatesCount;\n\t// \tcandidates[candidatesCount] = Candidate(candidatesCount, _name, 0);\n\t// }\n\n\t// function vote(uint _candidateId) public {\n\t// \t// check for voted before\n\t// \trequire(!voters[msg.sender]);\n\t// \t// check for valid candidate\n\t// \trequire(_candidateId > 0 && _candidateId <= candidatesCount); \n\t// \t// record that voter has voted\n\t// \t// metadata that gets passed (msg), account from which function call sent (sender)\n\t// \tvoters[msg.sender] =true;\n\t// \t// update candidate voteCount\n\t// \tcandidates[_candidateId].voteCount++;\n\t// }\n}",
  "sourcePath": "/Users/wbarakzai/Documents/1.Spring20/Athenomics/src/contracts/Athenomics.sol",
  "compiler": {
    "name": "solc",
    "version": "0.5.16+commit.9c3226ce.Emscripten.clang"
  },
  "schemaVersion": "3.0.23",
  "updatedAt": "2020-03-24T22:32:54.684Z",
  "networkType": "ethereum",
  "devdoc": {
    "methods": {}
  },
  "userdoc": {
    "methods": {}
  }
}