{
  "contractName": "Athenomics",
  "abi": [
    {
      "inputs": [],
      "payable": false,
      "stateMutability": "nonpayable",
      "type": "constructor"
    },
    {
      "anonymous": false,
      "inputs": [
        {
          "indexed": false,
          "internalType": "string",
          "name": "_seq",
          "type": "string"
        },
        {
          "indexed": false,
          "internalType": "string",
          "name": "_source",
          "type": "string"
        }
      ],
      "name": "addGenomeEvent",
      "type": "event"
    },
    {
      "anonymous": false,
      "inputs": [
        {
          "indexed": false,
          "internalType": "string",
          "name": "_ins",
          "type": "string"
        }
      ],
      "name": "addMemberEvent",
      "type": "event"
    },
    {
      "anonymous": false,
      "inputs": [
        {
          "indexed": false,
          "internalType": "uint256",
          "name": "_genomeRequestStatus",
          "type": "uint256"
        },
        {
          "indexed": false,
          "internalType": "uint256",
          "name": "_memberRequestStatus",
          "type": "uint256"
        }
      ],
      "name": "addRequestEvent",
      "type": "event"
    },
    {
      "anonymous": false,
      "inputs": [
        {
          "indexed": false,
          "internalType": "uint256",
          "name": "_requestLength",
          "type": "uint256"
        }
      ],
      "name": "changeRequestEvent",
      "type": "event"
    },
    {
      "anonymous": false,
      "inputs": [
        {
          "indexed": false,
          "internalType": "string",
          "name": "_seq",
          "type": "string"
        }
      ],
      "name": "returnSequenceEvent",
      "type": "event"
    },
    {
      "constant": true,
      "inputs": [
        {
          "internalType": "uint256",
          "name": "",
          "type": "uint256"
        }
      ],
      "name": "genomes",
      "outputs": [
        {
          "internalType": "uint256",
          "name": "index",
          "type": "uint256"
        },
        {
          "internalType": "address",
          "name": "owner",
          "type": "address"
        },
        {
          "internalType": "string",
          "name": "seq",
          "type": "string"
        },
        {
          "internalType": "string",
          "name": "source_type",
          "type": "string"
        },
        {
          "internalType": "bool",
          "name": "exists",
          "type": "bool"
        }
      ],
      "payable": false,
      "stateMutability": "view",
      "type": "function"
    },
    {
      "constant": true,
      "inputs": [],
      "name": "genomesCount",
      "outputs": [
        {
          "internalType": "uint256",
          "name": "",
          "type": "uint256"
        }
      ],
      "payable": false,
      "stateMutability": "view",
      "type": "function"
    },
    {
      "constant": true,
      "inputs": [
        {
          "internalType": "address",
          "name": "",
          "type": "address"
        }
      ],
      "name": "members",
      "outputs": [
        {
          "internalType": "address",
          "name": "memAddress",
          "type": "address"
        },
        {
          "internalType": "string",
          "name": "institution",
          "type": "string"
        },
        {
          "internalType": "bool",
          "name": "exists",
          "type": "bool"
        }
      ],
      "payable": false,
      "stateMutability": "view",
      "type": "function"
    },
    {
      "constant": true,
      "inputs": [],
      "name": "membersCount",
      "outputs": [
        {
          "internalType": "uint256",
          "name": "",
          "type": "uint256"
        }
      ],
      "payable": false,
      "stateMutability": "view",
      "type": "function"
    },
    {
      "constant": false,
      "inputs": [
        {
          "internalType": "string",
          "name": "_seq",
          "type": "string"
        },
        {
          "internalType": "string",
          "name": "_source",
          "type": "string"
        }
      ],
      "name": "addGenome",
      "outputs": [],
      "payable": false,
      "stateMutability": "nonpayable",
      "type": "function"
    },
    {
      "constant": false,
      "inputs": [
        {
          "internalType": "string",
          "name": "_ins",
          "type": "string"
        }
      ],
      "name": "addMember",
      "outputs": [],
      "payable": false,
      "stateMutability": "nonpayable",
      "type": "function"
    },
    {
      "constant": false,
      "inputs": [
        {
          "internalType": "uint256",
          "name": "genome_owner",
          "type": "uint256"
        }
      ],
      "name": "addRequest",
      "outputs": [],
      "payable": false,
      "stateMutability": "nonpayable",
      "type": "function"
    },
    {
      "constant": true,
      "inputs": [
        {
          "internalType": "uint256",
          "name": "genome_owner",
          "type": "uint256"
        }
      ],
      "name": "getGenomeRequests",
      "outputs": [
        {
          "internalType": "address[]",
          "name": "",
          "type": "address[]"
        }
      ],
      "payable": false,
      "stateMutability": "view",
      "type": "function"
    },
    {
      "constant": true,
      "inputs": [
        {
          "internalType": "uint256",
          "name": "genome_owner",
          "type": "uint256"
        },
        {
          "internalType": "address",
          "name": "member",
          "type": "address"
        }
      ],
      "name": "getGenomeRequestStatus",
      "outputs": [
        {
          "internalType": "uint256",
          "name": "",
          "type": "uint256"
        }
      ],
      "payable": false,
      "stateMutability": "view",
      "type": "function"
    },
    {
      "constant": true,
      "inputs": [
        {
          "internalType": "uint256",
          "name": "genome_owner",
          "type": "uint256"
        },
        {
          "internalType": "address",
          "name": "sender",
          "type": "address"
        }
      ],
      "name": "checkGenomeRequestExists",
      "outputs": [
        {
          "internalType": "uint256",
          "name": "",
          "type": "uint256"
        }
      ],
      "payable": false,
      "stateMutability": "view",
      "type": "function"
    },
    {
      "constant": false,
      "inputs": [
        {
          "internalType": "uint256",
          "name": "genome_index",
          "type": "uint256"
        },
        {
          "internalType": "address",
          "name": "member",
          "type": "address"
        },
        {
          "internalType": "uint256",
          "name": "change",
          "type": "uint256"
        }
      ],
      "name": "changeRequest",
      "outputs": [],
      "payable": false,
      "stateMutability": "nonpayable",
      "type": "function"
    },
    {
      "constant": true,
      "inputs": [
        {
          "internalType": "address",
          "name": "memAddress",
          "type": "address"
        }
      ],
      "name": "getMemberName",
      "outputs": [
        {
          "internalType": "string",
          "name": "",
          "type": "string"
        }
      ],
      "payable": false,
      "stateMutability": "view",
      "type": "function"
    },
    {
      "constant": true,
      "inputs": [
        {
          "internalType": "uint256",
          "name": "genome_index",
          "type": "uint256"
        }
      ],
      "name": "getGenomeOwner",
      "outputs": [
        {
          "internalType": "address",
          "name": "",
          "type": "address"
        }
      ],
      "payable": false,
      "stateMutability": "view",
      "type": "function"
    },
    {
      "constant": true,
      "inputs": [
        {
          "internalType": "address",
          "name": "sender",
          "type": "address"
        }
      ],
      "name": "checkMemberExists",
      "outputs": [
        {
          "internalType": "bool",
          "name": "",
          "type": "bool"
        }
      ],
      "payable": false,
      "stateMutability": "view",
      "type": "function"
    },
    {
      "constant": false,
      "inputs": [
        {
          "internalType": "uint256",
          "name": "genome_index",
          "type": "uint256"
        }
      ],
      "name": "returnSeq",
      "outputs": [
        {
          "internalType": "string",
          "name": "",
          "type": "string"
        }
      ],
      "payable": false,
      "stateMutability": "nonpayable",
      "type": "function"
    }
  ],
  "bytecode": "0x608060405234801561001057600080fd5b50611d6d806100206000396000f3fe608060405234801561001057600080fd5b50600436106100f55760003560e01c80634accbc2711610097578063918f968711610066578063918f96871461056f578063aff4b8491461062a578063c7bebdfd146106e7578063eb8c3b651461083f576100f5565b80634accbc27146104485780634ca1fad8146104cb578063537a567c146104f95780638d7f483614610517576100f5565b80632af3b91f116100d35780632af3b91f146102ba5780632dfe6dd714610328578063324ddb151461038a57806337e9dcce146103e6576100f5565b806308ae4b0c146100fa57806324325dc9146101f5578063297f9af01461029c575b600080fd5b61013c6004803603602081101561011057600080fd5b81019080803573ffffffffffffffffffffffffffffffffffffffff169060200190929190505050610991565b604051808473ffffffffffffffffffffffffffffffffffffffff1673ffffffffffffffffffffffffffffffffffffffff1681526020018060200183151515158152602001828103825284818151815260200191508051906020019080838360005b838110156101b857808201518184015260208101905061019d565b50505050905090810190601f1680156101e55780820380516001836020036101000a031916815260200191505b5094505050505060405180910390f35b6102216004803603602081101561020b57600080fd5b8101908080359060200190929190505050610a80565b6040518080602001828103825283818151815260200191508051906020019080838360005b83811015610261578082015181840152602081019050610246565b50505050905090810190601f16801561028e5780820380516001836020036101000a031916815260200191505b509250505060405180910390f35b6102a4610c04565b6040518082815260200191505060405180910390f35b6102e6600480360360208110156102d057600080fd5b8101908080359060200190929190505050610c0a565b604051808273ffffffffffffffffffffffffffffffffffffffff1673ffffffffffffffffffffffffffffffffffffffff16815260200191505060405180910390f35b6103746004803603604081101561033e57600080fd5b8101908080359060200190929190803573ffffffffffffffffffffffffffffffffffffffff169060200190929190505050610c49565b6040518082815260200191505060405180910390f35b6103cc600480360360208110156103a057600080fd5b81019080803573ffffffffffffffffffffffffffffffffffffffff169060200190929190505050610ca6565b604051808215151515815260200191505060405180910390f35b610432600480360360408110156103fc57600080fd5b8101908080359060200190929190803573ffffffffffffffffffffffffffffffffffffffff169060200190929190505050610cff565b6040518082815260200191505060405180910390f35b6104746004803603602081101561045e57600080fd5b8101908080359060200190929190505050610d5c565b6040518080602001828103825283818151815260200191508051906020019060200280838360005b838110156104b757808201518184015260208101905061049c565b505050509050019250505060405180910390f35b6104f7600480360360208110156104e157600080fd5b8101908080359060200190929190505050610dff565b005b61050161100f565b6040518082815260200191505060405180910390f35b61056d6004803603606081101561052d57600080fd5b8101908080359060200190929190803573ffffffffffffffffffffffffffffffffffffffff16906020019092919080359060200190929190505050611015565b005b6106286004803603602081101561058557600080fd5b81019080803590602001906401000000008111156105a257600080fd5b8201836020820111156105b457600080fd5b803590602001918460018302840111640100000000831117156105d657600080fd5b91908080601f016020809104026020016040519081016040528093929190818152602001838380828437600081840152601f19601f82011690508083019250505050505050919291929050505061140d565b005b61066c6004803603602081101561064057600080fd5b81019080803573ffffffffffffffffffffffffffffffffffffffff1690602001909291905050506115c2565b6040518080602001828103825283818151815260200191508051906020019080838360005b838110156106ac578082015181840152602081019050610691565b50505050905090810190601f1680156106d95780820380516001836020036101000a031916815260200191505b509250505060405180910390f35b610713600480360360208110156106fd57600080fd5b81019080803590602001909291905050506116a6565b604051808681526020018573ffffffffffffffffffffffffffffffffffffffff1673ffffffffffffffffffffffffffffffffffffffff168152602001806020018060200184151515158152602001838103835286818151815260200191508051906020019080838360005b8381101561079957808201518184015260208101905061077e565b50505050905090810190601f1680156107c65780820380516001836020036101000a031916815260200191505b50838103825285818151815260200191508051906020019080838360005b838110156107ff5780820151818401526020810190506107e4565b50505050905090810190601f16801561082c5780820380516001836020036101000a031916815260200191505b5097505050505050505060405180910390f35b61098f6004803603604081101561085557600080fd5b810190808035906020019064010000000081111561087257600080fd5b82018360208201111561088457600080fd5b803590602001918460018302840111640100000000831117156108a657600080fd5b91908080601f016020809104026020016040519081016040528093929190818152602001838380828437600081840152601f19601f8201169050808301925050505050505091929192908035906020019064010000000081111561090957600080fd5b82018360208201111561091b57600080fd5b8035906020019184600183028401116401000000008311171561093d57600080fd5b91908080601f016020809104026020016040519081016040528093929190818152602001838380828437600081840152601f19601f820116905080830192505050505050509192919290505050611839565b005b60026020528060005260406000206000915090508060000160009054906101000a900473ffffffffffffffffffffffffffffffffffffffff1690806001018054600181600116156101000203166002900480601f016020809104026020016040519081016040528092919081815260200182805460018160011615610100020316600290048015610a635780601f10610a3857610100808354040283529160200191610a63565b820191906000526020600020905b815481529060010190602001808311610a4657829003601f168201915b5050505050908060020160009054906101000a900460ff16905083565b60607f20c5f3eb3835e1942c0b876d53cc41cbc48993c6ea6417c4b9c60cb9c90bcfac6000808481526020019081526020016000206002016040518080602001828103825283818154600181600116156101000203166002900481526020019150805460018160011615610100020316600290048015610b415780601f10610b1657610100808354040283529160200191610b41565b820191906000526020600020905b815481529060010190602001808311610b2457829003601f168201915b50509250505060405180910390a16000808381526020019081526020016000206002018054600181600116156101000203166002900480601f016020809104026020016040519081016040528092919081815260200182805460018160011615610100020316600290048015610bf85780601f10610bcd57610100808354040283529160200191610bf8565b820191906000526020600020905b815481529060010190602001808311610bdb57829003601f168201915b50505050509050919050565b60035481565b600080600083815260200190815260200160002060010160009054906101000a900473ffffffffffffffffffffffffffffffffffffffff169050919050565b600080600084815260200190815260200160002060070160008373ffffffffffffffffffffffffffffffffffffffff1673ffffffffffffffffffffffffffffffffffffffff16815260200190815260200160002054905092915050565b6000600260008373ffffffffffffffffffffffffffffffffffffffff1673ffffffffffffffffffffffffffffffffffffffff16815260200190815260200160002060020160009054906101000a900460ff169050919050565b600080600084815260200190815260200160002060070160008373ffffffffffffffffffffffffffffffffffffffff1673ffffffffffffffffffffffffffffffffffffffff16815260200190815260200160002054905092915050565b6060600080838152602001908152602001600020600501805480602002602001604051908101604052809291908181526020018280548015610df357602002820191906000526020600020905b8160009054906101000a900473ffffffffffffffffffffffffffffffffffffffff1673ffffffffffffffffffffffffffffffffffffffff1681526020019060010190808311610da9575b50505050509050919050565b6000808281526020019081526020016000206005013390806001815401808255809150509060018203906000526020600020016000909192909190916101000a81548173ffffffffffffffffffffffffffffffffffffffff021916908373ffffffffffffffffffffffffffffffffffffffff16021790555050600260008083815260200190815260200160002060070160003373ffffffffffffffffffffffffffffffffffffffff1673ffffffffffffffffffffffffffffffffffffffff1681526020019081526020016000208190555060028060003373ffffffffffffffffffffffffffffffffffffffff1673ffffffffffffffffffffffffffffffffffffffff1681526020019081526020016000206003016000838152602001908152602001600020819055507fa489499c56f94a9b7b53c599cc3a3d35ffe2c45015e1cd265257bd859bfdd80b60008083815260200190815260200160002060070160003373ffffffffffffffffffffffffffffffffffffffff1673ffffffffffffffffffffffffffffffffffffffff16815260200190815260200160002054600260003373ffffffffffffffffffffffffffffffffffffffff1673ffffffffffffffffffffffffffffffffffffffff168152602001908152602001600020600301600084815260200190815260200160002054604051808381526020018281526020019250505060405180910390a150565b60015481565b80600260008473ffffffffffffffffffffffffffffffffffffffff1673ffffffffffffffffffffffffffffffffffffffff1681526020019081526020016000206003016000858152602001908152602001600020819055508060008085815260200190815260200160002060070160008473ffffffffffffffffffffffffffffffffffffffff1673ffffffffffffffffffffffffffffffffffffffff1681526020019081526020016000208190555060018114156113b95760008090506000600260008573ffffffffffffffffffffffffffffffffffffffff1673ffffffffffffffffffffffffffffffffffffffff168152602001908152602001600020600301600086815260200190815260200160002081905550600080600086815260200190815260200160002060070160008573ffffffffffffffffffffffffffffffffffffffff1673ffffffffffffffffffffffffffffffffffffffff1681526020019081526020016000208190555060008090505b6000808681526020019081526020016000206005018054905081101561123a578373ffffffffffffffffffffffffffffffffffffffff1660008087815260200190815260200160002060050182815481106111e057fe5b9060005260206000200160009054906101000a900473ffffffffffffffffffffffffffffffffffffffff1673ffffffffffffffffffffffffffffffffffffffff16141561122f5780915061123a565b806001019050611189565b5060008190505b6001600080878152602001908152602001600020600501805490500381101561132557600080868152602001908152602001600020600501600182018154811061128757fe5b9060005260206000200160009054906101000a900473ffffffffffffffffffffffffffffffffffffffff1660008087815260200190815260200160002060050182815481106112d257fe5b9060005260206000200160006101000a81548173ffffffffffffffffffffffffffffffffffffffff021916908373ffffffffffffffffffffffffffffffffffffffff160217905550806001019050611241565b50600080858152602001908152602001600020600501600160008087815260200190815260200160002060050180549050038154811061136157fe5b9060005260206000200160006101000a81549073ffffffffffffffffffffffffffffffffffffffff02191690556000808581526020019081526020016000206005018054809190600190036113b69190611b0c565b50505b7f8f8eb1967c344b6dae89a1035ebd369496b40de8e863206e3c01d939cdbda9cc600080858152602001908152602001600020600501805490506040518082815260200191505060405180910390a1505050565b60036000815460010191905081905550611425611b38565b60405180606001604052803373ffffffffffffffffffffffffffffffffffffffff16815260200183815260200160011515815250905080600260003373ffffffffffffffffffffffffffffffffffffffff1673ffffffffffffffffffffffffffffffffffffffff16815260200190815260200160002060008201518160000160006101000a81548173ffffffffffffffffffffffffffffffffffffffff021916908373ffffffffffffffffffffffffffffffffffffffff16021790555060208201518160010190805190602001906114fe929190611b71565b5060408201518160020160006101000a81548160ff0219169083151502179055509050507f3f84efa969f695fbafcf124bea17bf9cc58dcd404335132267a07c77de17acee826040518080602001828103825283818151815260200191508051906020019080838360005b83811015611584578082015181840152602081019050611569565b50505050905090810190601f1680156115b15780820380516001836020036101000a031916815260200191505b509250505060405180910390a15050565b6060600260008373ffffffffffffffffffffffffffffffffffffffff1673ffffffffffffffffffffffffffffffffffffffff1681526020019081526020016000206001018054600181600116156101000203166002900480601f01602080910402602001604051908101604052809291908181526020018280546001816001161561010002031660029004801561169a5780601f1061166f5761010080835404028352916020019161169a565b820191906000526020600020905b81548152906001019060200180831161167d57829003601f168201915b50505050509050919050565b60006020528060005260406000206000915090508060000154908060010160009054906101000a900473ffffffffffffffffffffffffffffffffffffffff1690806002018054600181600116156101000203166002900480601f01602080910402602001604051908101604052809291908181526020018280546001816001161561010002031660029004801561177e5780601f106117535761010080835404028352916020019161177e565b820191906000526020600020905b81548152906001019060200180831161176157829003601f168201915b505050505090806003018054600181600116156101000203166002900480601f01602080910402602001604051908101604052809291908181526020018280546001816001161561010002031660029004801561181c5780601f106117f15761010080835404028352916020019161181c565b820191906000526020600020905b8154815290600101906020018083116117ff57829003601f168201915b5050505050908060060160009054906101000a900460ff16905085565b60016000815460010191905081905550611851611bf1565b6040518060e0016040528060015481526020013373ffffffffffffffffffffffffffffffffffffffff16815260200184815260200183815260200160006040519080825280602002602001820160405280156118bc5781602001602082028038833980820191505090505b50815260200160006040519080825280602002602001820160405280156118f25781602001602082028038833980820191505090505b5081526020016001151581525090508060008060015481526020019081526020016000206000820151816000015560208201518160010160006101000a81548173ffffffffffffffffffffffffffffffffffffffff021916908373ffffffffffffffffffffffffffffffffffffffff1602179055506040820151816002019080519060200190611983929190611b71565b5060608201518160030190805190602001906119a0929190611b71565b5060808201518160040190805190602001906119bd929190611c46565b5060a08201518160050190805190602001906119da929190611c46565b5060c08201518160060160006101000a81548160ff0219169083151502179055509050507f9b4dcddb0c23483ba96d4b167e36c606d102edf0d693e9bdc37f450048b96ecc8383604051808060200180602001838103835285818151815260200191508051906020019080838360005b83811015611a65578082015181840152602081019050611a4a565b50505050905090810190601f168015611a925780820380516001836020036101000a031916815260200191505b50838103825284818151815260200191508051906020019080838360005b83811015611acb578082015181840152602081019050611ab0565b50505050905090810190601f168015611af85780820380516001836020036101000a031916815260200191505b5094505050505060405180910390a1505050565b815481835581811115611b3357818360005260206000209182019101611b329190611cd0565b5b505050565b6040518060600160405280600073ffffffffffffffffffffffffffffffffffffffff168152602001606081526020016000151581525090565b828054600181600116156101000203166002900490600052602060002090601f016020900481019282601f10611bb257805160ff1916838001178555611be0565b82800160010185558215611be0579182015b82811115611bdf578251825591602001919060010190611bc4565b5b509050611bed9190611cd0565b5090565b6040518060e0016040528060008152602001600073ffffffffffffffffffffffffffffffffffffffff168152602001606081526020016060815260200160608152602001606081526020016000151581525090565b828054828255906000526020600020908101928215611cbf579160200282015b82811115611cbe5782518260006101000a81548173ffffffffffffffffffffffffffffffffffffffff021916908373ffffffffffffffffffffffffffffffffffffffff16021790555091602001919060010190611c66565b5b509050611ccc9190611cf5565b5090565b611cf291905b80821115611cee576000816000905550600101611cd6565b5090565b90565b611d3591905b80821115611d3157600081816101000a81549073ffffffffffffffffffffffffffffffffffffffff021916905550600101611cfb565b5090565b9056fea265627a7a72315820c387ed1d3bf4dbfed98792ad5eed95937598dd6e2de1424b7ca6948c3b9f00b964736f6c63430005100032",
  "source": "pragma solidity ^0.5.16;\n\ncontract Athenomics {\n\n\t// Create a Genome container\n\tstruct Genome {\n\t\tuint index;\n\t\taddress owner;\n\t\tstring seq;\n\t\tstring source_type;\n\t\taddress[] shared;\n\t\taddress[] open_requests;\n\t\tbool exists;\n\t\t// 1=rejected, 2=open, 3=accepted\n\t\tmapping(address => uint) open_requests_status;\n\t}\n\n\tstruct Member {\n\t\taddress memAddress;\n\t\tstring institution;\n\t\tbool exists;\n\t\t// values 2=open, 1=rejected, 3=accepted\n\t\tmapping(uint => uint) requests;\n\t}\n\n\t// additions to mappings and address arrays changes state of contract.\n\t// changing state of contract means writing to blockchain\n\t\n\t// mapping of publically available genomes to be bid on via id\n\t// Can be 1 address/multiple genomes\n\tmapping(uint => Genome) public genomes;\n\tuint public genomesCount;\n\n\t// pubGenomesCount + privGenomesCount == genomesCount;\n\n\t// list of addresses of entities that may request genomes\n\t// Only 1 address/each member\n\tmapping(address => Member) public members;\n\tuint public membersCount;\n\n\n\t// voted event\n\t// keep for reference\n\t// event votedEvent (\n //        uint indexed _candidateId\n //    );\n\n    event addGenomeEvent (\n        string _seq,\n        string _source\n    );\n\n    event addMemberEvent (\n        string _ins\n    );\n\n    event addRequestEvent (\n        uint _genomeRequestStatus,\n        uint _memberRequestStatus\n    );\n\n    event changeRequestEvent (\n        uint _requestLength\n    );\n\n    event returnSequenceEvent (\n        string _seq\n    );\n\n\tconstructor() public {}\n\n\t// add genome to genome mapping\n\tfunction addGenome(string memory _seq, string memory _source) public {\n\t\t++genomesCount;\n\t\tGenome memory _genome = Genome(genomesCount, msg.sender, _seq, _source, new address[](0), new address[](0), true);\n\t\tgenomes[genomesCount] = _genome;\n\t\temit addGenomeEvent(_seq, _source);\n\t}\n\t\n\t// add member to member mapping\n\tfunction addMember(string memory _ins) public {\n\t\t++membersCount;\n\t\tMember memory _member = Member(msg.sender, _ins, true);\n\t\tmembers[msg.sender] = _member;\n\t\temit addMemberEvent(_ins);\n\t}\n\n\tfunction addRequest(uint genome_owner) public {\n\t\tgenomes[genome_owner].open_requests.push(msg.sender);\n\t\tgenomes[genome_owner].open_requests_status[msg.sender] = 2;\n\t\t// Create a request in the member requests field\n\t\tmembers[msg.sender].requests[genome_owner] = 2;\n\t\temit addRequestEvent(genomes[genome_owner].open_requests_status[msg.sender], members[msg.sender].requests[genome_owner]);\n\t}\n\n\tfunction getGenomeRequests(uint genome_owner) public view returns (address[] memory) {\n\t\treturn genomes[genome_owner].open_requests;\n\t}\n\n\tfunction getGenomeRequestStatus(uint genome_owner, address member) public view returns (uint) {\n\t\treturn genomes[genome_owner].open_requests_status[member];\n\t}\n\n\tfunction checkGenomeRequestExists(uint genome_owner, address sender) public view returns (uint) {\n\t\treturn genomes[genome_owner].open_requests_status[sender];\n\t}\n\n\tfunction changeRequest(uint genome_index, address member, uint change) public {\n\t\tmembers[member].requests[genome_index] = change;\n\t\tgenomes[genome_index].open_requests_status[member] = change;\n\t\tif(change == 1 ) {\n\t\t\tuint index = 0;\n\t\t\tmembers[member].requests[genome_index] = 0;\n\t\t\tgenomes[genome_index].open_requests_status[member] = 0;\n\t\t\tfor(uint i = 0; i < genomes[genome_index].open_requests.length; ++i){\n\t\t\t\tif(genomes[genome_index].open_requests[i] == member){\n\t\t\t\t\tindex = i;\n\t\t\t\t\tbreak;\n\t\t\t\t}\n\t\t\t}\n\t\t\tfor (uint i=index; i<genomes[genome_index].open_requests.length-1; ++i){\n\t\t\t\tgenomes[genome_index].open_requests[i] = genomes[genome_index].open_requests[i+1]; // shift left by one\n\t\t\t}\n\t\t\tdelete genomes[genome_index].open_requests[genomes[genome_index].open_requests.length-1]; // The last One\n\t\t\tgenomes[genome_index].open_requests.length--;\n\t\t}\n\t\temit changeRequestEvent(genomes[genome_index].open_requests.length);\n\t}\n\n\tfunction getMemberName(address memAddress) public view returns (string memory) {\n\t\treturn members[memAddress].institution;\n\t}\n\n\tfunction getGenomeOwner(uint genome_index) public view returns (address) {\n\t\treturn genomes[genome_index].owner;\n\t}\n\n\tfunction checkMemberExists(address sender) public view returns (bool) {\n\t\treturn members[sender].exists;\n\t}\n\n\tfunction returnSeq(uint genome_index) public returns (string memory) {\n\t\temit returnSequenceEvent(genomes[genome_index].seq);\n\t\treturn genomes[genome_index].seq;\n\t}\n\t\t\n\n\n\t// Add candidates to candidates mapping\n\t// function addCandidate(string memory _name) private {\n\t// \t++candidatesCount;\n\t// \tcandidates[candidatesCount] = Candidate(candidatesCount, _name, 0);\n\t// }\n\n\t// function vote(uint _candidateId) public {\n\t// \t// check for voted before\n\t// \trequire(!voters[msg.sender]);\n\t// \t// check for valid candidate\n\t// \trequire(_candidateId > 0 && _candidateId <= candidatesCount); \n\t// \t// record that voter has voted\n\t// \t// metadata that gets passed (msg), account from which function call sent (sender)\n\t// \tvoters[msg.sender] =true;\n\t// \t// update candidate voteCount\n\t// \tcandidates[_candidateId].voteCount++;\n\t// }\n}",
  "sourcePath": "/Users/dr/Desktop/Athenomics/src/contracts/Athenomics.sol",
  "compiler": {
    "name": "solc",
    "version": "0.5.16+commit.9c3226ce.Emscripten.clang"
  },
  "schemaVersion": "3.0.23",
  "updatedAt": "2020-04-21T06:09:59.929Z",
  "networkType": "ethereum",
  "devdoc": {
    "methods": {}
  },
  "userdoc": {
    "methods": {}
  }
}