{
  "contractName": "Athenomics",
  "abi": [
    {
      "inputs": [],
      "payable": false,
      "stateMutability": "nonpayable",
      "type": "constructor"
    },
    {
      "constant": true,
      "inputs": [
        {
          "internalType": "uint256",
          "name": "",
          "type": "uint256"
        }
      ],
      "name": "genomes",
      "outputs": [
        {
          "internalType": "uint256",
          "name": "index",
          "type": "uint256"
        },
        {
          "internalType": "address",
          "name": "owner",
          "type": "address"
        },
        {
          "internalType": "string",
          "name": "seq",
          "type": "string"
        },
        {
          "internalType": "string",
          "name": "source_type",
          "type": "string"
        }
      ],
      "payable": false,
      "stateMutability": "view",
      "type": "function"
    },
    {
      "constant": true,
      "inputs": [],
      "name": "genomesCount",
      "outputs": [
        {
          "internalType": "uint256",
          "name": "",
          "type": "uint256"
        }
      ],
      "payable": false,
      "stateMutability": "view",
      "type": "function"
    },
    {
      "constant": true,
      "inputs": [
        {
          "internalType": "address",
          "name": "",
          "type": "address"
        }
      ],
      "name": "members",
      "outputs": [
        {
          "internalType": "uint256",
          "name": "index",
          "type": "uint256"
        },
        {
          "internalType": "address",
          "name": "memAddress",
          "type": "address"
        },
        {
          "internalType": "string",
          "name": "institution",
          "type": "string"
        }
      ],
      "payable": false,
      "stateMutability": "view",
      "type": "function"
    },
    {
      "constant": true,
      "inputs": [],
      "name": "membersCount",
      "outputs": [
        {
          "internalType": "uint256",
          "name": "",
          "type": "uint256"
        }
      ],
      "payable": false,
      "stateMutability": "view",
      "type": "function"
    },
    {
      "constant": false,
      "inputs": [
        {
          "internalType": "string",
          "name": "_seq",
          "type": "string"
        },
        {
          "internalType": "string",
          "name": "_source",
          "type": "string"
        }
      ],
      "name": "addGenome",
      "outputs": [],
      "payable": false,
      "stateMutability": "nonpayable",
      "type": "function"
    },
    {
      "constant": false,
      "inputs": [
        {
          "internalType": "string",
          "name": "_ins",
          "type": "string"
        }
      ],
      "name": "addMember",
      "outputs": [],
      "payable": false,
      "stateMutability": "nonpayable",
      "type": "function"
    },
    {
      "constant": false,
      "inputs": [
        {
          "internalType": "uint256",
          "name": "genome_owner",
          "type": "uint256"
        }
      ],
      "name": "addRequest",
      "outputs": [],
      "payable": false,
      "stateMutability": "nonpayable",
      "type": "function"
    },
    {
      "constant": true,
      "inputs": [
        {
          "internalType": "uint256",
          "name": "genome_owner",
          "type": "uint256"
        }
      ],
      "name": "getGenomeRequests",
      "outputs": [
        {
          "internalType": "address[]",
          "name": "",
          "type": "address[]"
        }
      ],
      "payable": false,
      "stateMutability": "view",
      "type": "function"
    },
    {
      "constant": true,
      "inputs": [
        {
          "internalType": "uint256",
          "name": "genome_owner",
          "type": "uint256"
        },
        {
          "internalType": "address",
          "name": "member",
          "type": "address"
        }
      ],
      "name": "getGenomeRequestStatus",
      "outputs": [
        {
          "internalType": "uint256",
          "name": "",
          "type": "uint256"
        }
      ],
      "payable": false,
      "stateMutability": "view",
      "type": "function"
    },
    {
      "constant": false,
      "inputs": [
        {
          "internalType": "uint256",
          "name": "genome_index",
          "type": "uint256"
        },
        {
          "internalType": "address",
          "name": "member",
          "type": "address"
        },
        {
          "internalType": "uint256",
          "name": "change",
          "type": "uint256"
        }
      ],
      "name": "changeRequest",
      "outputs": [],
      "payable": false,
      "stateMutability": "nonpayable",
      "type": "function"
    },
    {
      "constant": true,
      "inputs": [
        {
          "internalType": "address",
          "name": "memAddress",
          "type": "address"
        }
      ],
      "name": "getMemberName",
      "outputs": [
        {
          "internalType": "string",
          "name": "",
          "type": "string"
        }
      ],
      "payable": false,
      "stateMutability": "view",
      "type": "function"
    }
  ],
  "bytecode": "0x608060405234801561001057600080fd5b50611263806100206000396000f3fe608060405234801561001057600080fd5b50600436106100a95760003560e01c8063537a567c11610071578063537a567c146102d65780638d7f4836146102f4578063918f96871461034c578063aff4b84914610407578063c7bebdfd146104c4578063eb8c3b6514610611576100a9565b806308ae4b0c146100ae578063297f9af0146101a55780632dfe6dd7146101c35780634accbc27146102255780634ca1fad8146102a8575b600080fd5b6100f0600480360360208110156100c457600080fd5b81019080803573ffffffffffffffffffffffffffffffffffffffff169060200190929190505050610763565b604051808481526020018373ffffffffffffffffffffffffffffffffffffffff1673ffffffffffffffffffffffffffffffffffffffff16815260200180602001828103825283818151815260200191508051906020019080838360005b8381101561016857808201518184015260208101905061014d565b50505050905090810190601f1680156101955780820380516001836020036101000a031916815260200191505b5094505050505060405180910390f35b6101ad610845565b6040518082815260200191505060405180910390f35b61020f600480360360408110156101d957600080fd5b8101908080359060200190929190803573ffffffffffffffffffffffffffffffffffffffff16906020019092919050505061084b565b6040518082815260200191505060405180910390f35b6102516004803603602081101561023b57600080fd5b81019080803590602001909291905050506108a8565b6040518080602001828103825283818151815260200191508051906020019060200280838360005b83811015610294578082015181840152602081019050610279565b505050509050019250505060405180910390f35b6102d4600480360360208110156102be57600080fd5b810190808035906020019092919050505061094b565b005b6102de610a78565b6040518082815260200191505060405180910390f35b61034a6004803603606081101561030a57600080fd5b8101908080359060200190929190803573ffffffffffffffffffffffffffffffffffffffff16906020019092919080359060200190929190505050610a7e565b005b6104056004803603602081101561036257600080fd5b810190808035906020019064010000000081111561037f57600080fd5b82018360208201111561039157600080fd5b803590602001918460018302840111640100000000831117156103b357600080fd5b91908080601f016020809104026020016040519081016040528093929190818152602001838380828437600081840152601f19601f820116905080830192505050505050509192919290505050610b32565b005b6104496004803603602081101561041d57600080fd5b81019080803573ffffffffffffffffffffffffffffffffffffffff169060200190929190505050610c34565b6040518080602001828103825283818151815260200191508051906020019080838360005b8381101561048957808201518184015260208101905061046e565b50505050905090810190601f1680156104b65780820380516001836020036101000a031916815260200191505b509250505060405180910390f35b6104f0600480360360208110156104da57600080fd5b8101908080359060200190929190505050610d18565b604051808581526020018473ffffffffffffffffffffffffffffffffffffffff1673ffffffffffffffffffffffffffffffffffffffff1681526020018060200180602001838103835285818151815260200191508051906020019080838360005b8381101561056c578082015181840152602081019050610551565b50505050905090810190601f1680156105995780820380516001836020036101000a031916815260200191505b50838103825284818151815260200191508051906020019080838360005b838110156105d25780820151818401526020810190506105b7565b50505050905090810190601f1680156105ff5780820380516001836020036101000a031916815260200191505b50965050505050505060405180910390f35b6107616004803603604081101561062757600080fd5b810190808035906020019064010000000081111561064457600080fd5b82018360208201111561065657600080fd5b8035906020019184600183028401116401000000008311171561067857600080fd5b91908080601f016020809104026020016040519081016040528093929190818152602001838380828437600081840152601f19601f820116905080830192505050505050509192919290803590602001906401000000008111156106db57600080fd5b8201836020820111156106ed57600080fd5b8035906020019184600183028401116401000000008311171561070f57600080fd5b91908080601f016020809104026020016040519081016040528093929190818152602001838380828437600081840152601f19601f820116905080830192505050505050509192919290505050610e98565b005b60026020528060005260406000206000915090508060000154908060010160009054906101000a900473ffffffffffffffffffffffffffffffffffffffff1690806002018054600181600116156101000203166002900480601f01602080910402602001604051908101604052809291908181526020018280546001816001161561010002031660029004801561083b5780601f106108105761010080835404028352916020019161083b565b820191906000526020600020905b81548152906001019060200180831161081e57829003601f168201915b5050505050905083565b60035481565b600080600084815260200190815260200160002060060160008373ffffffffffffffffffffffffffffffffffffffff1673ffffffffffffffffffffffffffffffffffffffff16815260200190815260200160002054905092915050565b606060008083815260200190815260200160002060050180548060200260200160405190810160405280929190818152602001828054801561093f57602002820191906000526020600020905b8160009054906101000a900473ffffffffffffffffffffffffffffffffffffffff1673ffffffffffffffffffffffffffffffffffffffff16815260200190600101908083116108f5575b50505050509050919050565b6000808281526020019081526020016000206005013390806001815401808255809150509060018203906000526020600020016000909192909190916101000a81548173ffffffffffffffffffffffffffffffffffffffff021916908373ffffffffffffffffffffffffffffffffffffffff16021790555050600160008083815260200190815260200160002060060160003373ffffffffffffffffffffffffffffffffffffffff1673ffffffffffffffffffffffffffffffffffffffff168152602001908152602001600020819055506001600260003373ffffffffffffffffffffffffffffffffffffffff1673ffffffffffffffffffffffffffffffffffffffff16815260200190815260200160002060030160008381526020019081526020016000208190555050565b60015481565b80600260008473ffffffffffffffffffffffffffffffffffffffff1673ffffffffffffffffffffffffffffffffffffffff1681526020019081526020016000206003016000858152602001908152602001600020819055508060008085815260200190815260200160002060060160008473ffffffffffffffffffffffffffffffffffffffff1673ffffffffffffffffffffffffffffffffffffffff16815260200190815260200160002081905550505050565b60036000815460010191905081905550610b4a611039565b604051806060016040528060035481526020013373ffffffffffffffffffffffffffffffffffffffff16815260200183815250905080600260003373ffffffffffffffffffffffffffffffffffffffff1673ffffffffffffffffffffffffffffffffffffffff1681526020019081526020016000206000820151816000015560208201518160010160006101000a81548173ffffffffffffffffffffffffffffffffffffffff021916908373ffffffffffffffffffffffffffffffffffffffff1602179055506040820151816002019080519060200190610c2c929190611070565b509050505050565b6060600260008373ffffffffffffffffffffffffffffffffffffffff1673ffffffffffffffffffffffffffffffffffffffff1681526020019081526020016000206002018054600181600116156101000203166002900480601f016020809104026020016040519081016040528092919081815260200182805460018160011615610100020316600290048015610d0c5780601f10610ce157610100808354040283529160200191610d0c565b820191906000526020600020905b815481529060010190602001808311610cef57829003601f168201915b50505050509050919050565b60006020528060005260406000206000915090508060000154908060010160009054906101000a900473ffffffffffffffffffffffffffffffffffffffff1690806002018054600181600116156101000203166002900480601f016020809104026020016040519081016040528092919081815260200182805460018160011615610100020316600290048015610df05780601f10610dc557610100808354040283529160200191610df0565b820191906000526020600020905b815481529060010190602001808311610dd357829003601f168201915b505050505090806003018054600181600116156101000203166002900480601f016020809104026020016040519081016040528092919081815260200182805460018160011615610100020316600290048015610e8e5780601f10610e6357610100808354040283529160200191610e8e565b820191906000526020600020905b815481529060010190602001808311610e7157829003601f168201915b5050505050905084565b60016000815460010191905081905550610eb06110f0565b6040518060c0016040528060015481526020013373ffffffffffffffffffffffffffffffffffffffff1681526020018481526020018381526020016000604051908082528060200260200182016040528015610f1b5781602001602082028038833980820191505090505b5081526020016000604051908082528060200260200182016040528015610f515781602001602082028038833980820191505090505b5081525090508060008060015481526020019081526020016000206000820151816000015560208201518160010160006101000a81548173ffffffffffffffffffffffffffffffffffffffff021916908373ffffffffffffffffffffffffffffffffffffffff1602179055506040820151816002019080519060200190610fd9929190611070565b506060820151816003019080519060200190610ff6929190611070565b50608082015181600401908051906020019061101392919061113c565b5060a082015181600501908051906020019061103092919061113c565b50905050505050565b604051806060016040528060008152602001600073ffffffffffffffffffffffffffffffffffffffff168152602001606081525090565b828054600181600116156101000203166002900490600052602060002090601f016020900481019282601f106110b157805160ff19168380011785556110df565b828001600101855582156110df579182015b828111156110de5782518255916020019190600101906110c3565b5b5090506110ec91906111c6565b5090565b6040518060c0016040528060008152602001600073ffffffffffffffffffffffffffffffffffffffff168152602001606081526020016060815260200160608152602001606081525090565b8280548282559060005260206000209081019282156111b5579160200282015b828111156111b45782518260006101000a81548173ffffffffffffffffffffffffffffffffffffffff021916908373ffffffffffffffffffffffffffffffffffffffff1602179055509160200191906001019061115c565b5b5090506111c291906111eb565b5090565b6111e891905b808211156111e45760008160009055506001016111cc565b5090565b90565b61122b91905b8082111561122757600081816101000a81549073ffffffffffffffffffffffffffffffffffffffff0219169055506001016111f1565b5090565b9056fea265627a7a7231582033d4bae170f7cfbcc6fe6cf4c3a3254d64601ea488593df02a0c982c08e141e764736f6c63430005100032",
  "source": "pragma solidity ^0.5.16;\n\ncontract Athenomics {\n\n\t// Create a Genome container\n\tstruct Genome {\n\t\tuint index;\n\t\taddress owner;\n\t\tstring seq;\n\t\tstring source_type;\n\t\taddress[] shared;\n\t\taddress[] open_requests;\n\t\t// 0=rejected, 1=open, 2=accepted\n\t\tmapping(address => uint) open_requests_status;\n\t}\n\n\tstruct Member {\n\t\tuint index;\n\t\taddress memAddress;\n\t\tstring institution;\n\t\t// values 1=open, 0=rejected, 2=accepted\n\t\tmapping(uint => uint) requests;\n\t}\n\n\t// additions to mappings and address arrays changes state of contract.\n\t// changing state of contract means writing to blockchain\n\t\n\t// mapping of publically available genomes to be bid on via id\n\t// Can be 1 address/multiple genomes\n\tmapping(uint => Genome) public genomes;\n\tuint public genomesCount;\n\n\t// pubGenomesCount + privGenomesCount == genomesCount;\n\n\t// list of addresses of entities that may request genomes\n\t// Only 1 address/each member\n\tmapping(address => Member) public members;\n\tuint public membersCount;\n\n\n\t// voted event\n\t// keep for reference\n\t// event votedEvent (\n //        uint indexed _candidateId\n //    );\n\n\tconstructor() public {}\n\n\t// add genome to genome mapping\n\tfunction addGenome(string memory _seq, string memory _source) public {\n\t\t++genomesCount;\n\t\tGenome memory _genome = Genome(genomesCount, msg.sender, _seq, _source, new address[](0), new address[](0));\n\t\tgenomes[genomesCount] = _genome;\n\t}\n\t// add member to member mapping\n\tfunction addMember(string memory _ins) public {\n\t\t++membersCount;\n\t\tMember memory _member = Member(membersCount, msg.sender, _ins);\n\t\tmembers[msg.sender] = _member;\n\t}\n\n\tfunction addRequest(uint genome_owner) public {\n\t\tgenomes[genome_owner].open_requests.push(msg.sender);\n\t\tgenomes[genome_owner].open_requests_status[msg.sender] = 1;\n\t\t// Create a request in the member requests field\n\t\tmembers[msg.sender].requests[genome_owner] = 1;\n\n\t}\n\n\tfunction getGenomeRequests(uint genome_owner) public view returns (address[] memory) {\n\t\treturn genomes[genome_owner].open_requests;\n\t}\n\n\tfunction getGenomeRequestStatus(uint genome_owner, address member) public view returns (uint) {\n\t\treturn genomes[genome_owner].open_requests_status[member];\n\t}\n\n\tfunction changeRequest(uint genome_index, address member, uint change) public {\n\t\tmembers[member].requests[genome_index] = change;\n\t\tgenomes[genome_index].open_requests_status[member] = change;\n\t}\n\n\tfunction getMemberName(address memAddress) public view returns (string memory) {\n\t\treturn members[memAddress].institution;\n\t}\n\n\t// Add candidates to candidates mapping\n\t// function addCandidate(string memory _name) private {\n\t// \t++candidatesCount;\n\t// \tcandidates[candidatesCount] = Candidate(candidatesCount, _name, 0);\n\t// }\n\n\t// function vote(uint _candidateId) public {\n\t// \t// check for voted before\n\t// \trequire(!voters[msg.sender]);\n\t// \t// check for valid candidate\n\t// \trequire(_candidateId > 0 && _candidateId <= candidatesCount); \n\t// \t// record that voter has voted\n\t// \t// metadata that gets passed (msg), account from which function call sent (sender)\n\t// \tvoters[msg.sender] =true;\n\t// \t// update candidate voteCount\n\t// \tcandidates[_candidateId].voteCount++;\n\t// }\n}",
  "sourcePath": "/Users/wbarakzai/Documents/1.Spring20/Athenomics/src/contracts/Athenomics.sol",
  "compiler": {
    "name": "solc",
    "version": "0.5.16+commit.9c3226ce.Emscripten.clang"
  },
  "schemaVersion": "3.0.23",
  "updatedAt": "2020-04-16T00:08:48.085Z",
  "networkType": "ethereum",
  "devdoc": {
    "methods": {}
  },
  "userdoc": {
    "methods": {}
  }
}