{
  "contractName": "Athenomics",
  "abi": [
    {
      "inputs": [],
      "payable": false,
      "stateMutability": "nonpayable",
      "type": "constructor"
    },
    {
      "constant": true,
      "inputs": [
        {
          "internalType": "uint256",
          "name": "",
          "type": "uint256"
        }
      ],
      "name": "genomes",
      "outputs": [
        {
          "internalType": "uint256",
          "name": "index",
          "type": "uint256"
        },
        {
          "internalType": "address",
          "name": "owner",
          "type": "address"
        },
        {
          "internalType": "string",
          "name": "seq",
          "type": "string"
        },
        {
          "internalType": "string",
          "name": "source_type",
          "type": "string"
        },
        {
          "internalType": "bool",
          "name": "exists",
          "type": "bool"
        }
      ],
      "payable": false,
      "stateMutability": "view",
      "type": "function"
    },
    {
      "constant": true,
      "inputs": [],
      "name": "genomesCount",
      "outputs": [
        {
          "internalType": "uint256",
          "name": "",
          "type": "uint256"
        }
      ],
      "payable": false,
      "stateMutability": "view",
      "type": "function"
    },
    {
      "constant": true,
      "inputs": [
        {
          "internalType": "address",
          "name": "",
          "type": "address"
        }
      ],
      "name": "members",
      "outputs": [
        {
          "internalType": "address",
          "name": "memAddress",
          "type": "address"
        },
        {
          "internalType": "string",
          "name": "institution",
          "type": "string"
        },
        {
          "internalType": "bool",
          "name": "exists",
          "type": "bool"
        }
      ],
      "payable": false,
      "stateMutability": "view",
      "type": "function"
    },
    {
      "constant": true,
      "inputs": [],
      "name": "membersCount",
      "outputs": [
        {
          "internalType": "uint256",
          "name": "",
          "type": "uint256"
        }
      ],
      "payable": false,
      "stateMutability": "view",
      "type": "function"
    },
    {
      "constant": false,
      "inputs": [
        {
          "internalType": "string",
          "name": "_seq",
          "type": "string"
        },
        {
          "internalType": "string",
          "name": "_source",
          "type": "string"
        }
      ],
      "name": "addGenome",
      "outputs": [],
      "payable": false,
      "stateMutability": "nonpayable",
      "type": "function"
    },
    {
      "constant": false,
      "inputs": [
        {
          "internalType": "string",
          "name": "_ins",
          "type": "string"
        }
      ],
      "name": "addMember",
      "outputs": [],
      "payable": false,
      "stateMutability": "nonpayable",
      "type": "function"
    },
    {
      "constant": false,
      "inputs": [
        {
          "internalType": "uint256",
          "name": "genome_owner",
          "type": "uint256"
        }
      ],
      "name": "addRequest",
      "outputs": [],
      "payable": false,
      "stateMutability": "nonpayable",
      "type": "function"
    },
    {
      "constant": true,
      "inputs": [
        {
          "internalType": "uint256",
          "name": "genome_owner",
          "type": "uint256"
        }
      ],
      "name": "getGenomeRequests",
      "outputs": [
        {
          "internalType": "address[]",
          "name": "",
          "type": "address[]"
        }
      ],
      "payable": false,
      "stateMutability": "view",
      "type": "function"
    },
    {
      "constant": true,
      "inputs": [
        {
          "internalType": "uint256",
          "name": "genome_owner",
          "type": "uint256"
        },
        {
          "internalType": "address",
          "name": "member",
          "type": "address"
        }
      ],
      "name": "getGenomeRequestStatus",
      "outputs": [
        {
          "internalType": "uint256",
          "name": "",
          "type": "uint256"
        }
      ],
      "payable": false,
      "stateMutability": "view",
      "type": "function"
    },
    {
      "constant": true,
      "inputs": [
        {
          "internalType": "uint256",
          "name": "genome_owner",
          "type": "uint256"
        }
      ],
      "name": "checkGenomeRequestExists",
      "outputs": [
        {
          "internalType": "bool",
          "name": "",
          "type": "bool"
        }
      ],
      "payable": false,
      "stateMutability": "view",
      "type": "function"
    },
    {
      "constant": false,
      "inputs": [
        {
          "internalType": "uint256",
          "name": "genome_index",
          "type": "uint256"
        },
        {
          "internalType": "address",
          "name": "member",
          "type": "address"
        },
        {
          "internalType": "uint256",
          "name": "change",
          "type": "uint256"
        }
      ],
      "name": "changeRequest",
      "outputs": [],
      "payable": false,
      "stateMutability": "nonpayable",
      "type": "function"
    },
    {
      "constant": true,
      "inputs": [
        {
          "internalType": "address",
          "name": "memAddress",
          "type": "address"
        }
      ],
      "name": "getMemberName",
      "outputs": [
        {
          "internalType": "string",
          "name": "",
          "type": "string"
        }
      ],
      "payable": false,
      "stateMutability": "view",
      "type": "function"
    },
    {
      "constant": true,
      "inputs": [
        {
          "internalType": "uint256",
          "name": "genome_index",
          "type": "uint256"
        }
      ],
      "name": "getGenomeOwner",
      "outputs": [
        {
          "internalType": "address",
          "name": "",
          "type": "address"
        }
      ],
      "payable": false,
      "stateMutability": "view",
      "type": "function"
    },
    {
      "constant": true,
      "inputs": [],
      "name": "checkMemberExists",
      "outputs": [
        {
          "internalType": "bool",
          "name": "",
          "type": "bool"
        }
      ],
      "payable": false,
      "stateMutability": "view",
      "type": "function"
    }
  ],
  "bytecode": "0x608060405234801561001057600080fd5b50611550806100206000396000f3fe608060405234801561001057600080fd5b50600436106100e95760003560e01c8063530340031161008c578063918f968711610066578063918f968714610466578063aff4b84914610521578063c7bebdfd146105de578063eb8c3b6514610736576100e9565b806353034003146103aa578063537a567c146103f05780638d7f48361461040e576100e9565b80632af3b91f116100c85780632af3b91f146102295780632dfe6dd7146102975780634accbc27146102f95780634ca1fad81461037c576100e9565b80626fceab146100ee57806308ae4b0c14610110578063297f9af01461020b575b600080fd5b6100f6610888565b604051808215151515815260200191505060405180910390f35b6101526004803603602081101561012657600080fd5b81019080803573ffffffffffffffffffffffffffffffffffffffff1690602001909291905050506108df565b604051808473ffffffffffffffffffffffffffffffffffffffff1673ffffffffffffffffffffffffffffffffffffffff1681526020018060200183151515158152602001828103825284818151815260200191508051906020019080838360005b838110156101ce5780820151818401526020810190506101b3565b50505050905090810190601f1680156101fb5780820380516001836020036101000a031916815260200191505b5094505050505060405180910390f35b6102136109ce565b6040518082815260200191505060405180910390f35b6102556004803603602081101561023f57600080fd5b81019080803590602001909291905050506109d4565b604051808273ffffffffffffffffffffffffffffffffffffffff1673ffffffffffffffffffffffffffffffffffffffff16815260200191505060405180910390f35b6102e3600480360360408110156102ad57600080fd5b8101908080359060200190929190803573ffffffffffffffffffffffffffffffffffffffff169060200190929190505050610a13565b6040518082815260200191505060405180910390f35b6103256004803603602081101561030f57600080fd5b8101908080359060200190929190505050610a70565b6040518080602001828103825283818151815260200191508051906020019060200280838360005b8381101561036857808201518184015260208101905061034d565b505050509050019250505060405180910390f35b6103a86004803603602081101561039257600080fd5b8101908080359060200190929190505050610b13565b005b6103d6600480360360208110156103c057600080fd5b8101908080359060200190929190505050610c3f565b604051808215151515815260200191505060405180910390f35b6103f8610d07565b6040518082815260200191505060405180910390f35b6104646004803603606081101561042457600080fd5b8101908080359060200190929190803573ffffffffffffffffffffffffffffffffffffffff16906020019092919080359060200190929190505050610d0d565b005b61051f6004803603602081101561047c57600080fd5b810190808035906020019064010000000081111561049957600080fd5b8201836020820111156104ab57600080fd5b803590602001918460018302840111640100000000831117156104cd57600080fd5b91908080601f016020809104026020016040519081016040528093929190818152602001838380828437600081840152601f19601f820116905080830192505050505050509192919290505050610dc1565b005b6105636004803603602081101561053757600080fd5b81019080803573ffffffffffffffffffffffffffffffffffffffff169060200190929190505050610eda565b6040518080602001828103825283818151815260200191508051906020019080838360005b838110156105a3578082015181840152602081019050610588565b50505050905090810190601f1680156105d05780820380516001836020036101000a031916815260200191505b509250505060405180910390f35b61060a600480360360208110156105f457600080fd5b8101908080359060200190929190505050610fbe565b604051808681526020018573ffffffffffffffffffffffffffffffffffffffff1673ffffffffffffffffffffffffffffffffffffffff168152602001806020018060200184151515158152602001838103835286818151815260200191508051906020019080838360005b83811015610690578082015181840152602081019050610675565b50505050905090810190601f1680156106bd5780820380516001836020036101000a031916815260200191505b50838103825285818151815260200191508051906020019080838360005b838110156106f65780820151818401526020810190506106db565b50505050905090810190601f1680156107235780820380516001836020036101000a031916815260200191505b5097505050505050505060405180910390f35b6108866004803603604081101561074c57600080fd5b810190808035906020019064010000000081111561076957600080fd5b82018360208201111561077b57600080fd5b8035906020019184600183028401116401000000008311171561079d57600080fd5b91908080601f016020809104026020016040519081016040528093929190818152602001838380828437600081840152601f19601f8201169050808301925050505050505091929192908035906020019064010000000081111561080057600080fd5b82018360208201111561081257600080fd5b8035906020019184600183028401116401000000008311171561083457600080fd5b91908080601f016020809104026020016040519081016040528093929190818152602001838380828437600081840152601f19601f820116905080830192505050505050509192919290505050611151565b005b6000600260003373ffffffffffffffffffffffffffffffffffffffff1673ffffffffffffffffffffffffffffffffffffffff16815260200190815260200160002060020160009054906101000a900460ff16905090565b60026020528060005260406000206000915090508060000160009054906101000a900473ffffffffffffffffffffffffffffffffffffffff1690806001018054600181600116156101000203166002900480601f0160208091040260200160405190810160405280929190818152602001828054600181600116156101000203166002900480156109b15780601f10610986576101008083540402835291602001916109b1565b820191906000526020600020905b81548152906001019060200180831161099457829003601f168201915b5050505050908060020160009054906101000a900460ff16905083565b60035481565b600080600083815260200190815260200160002060010160009054906101000a900473ffffffffffffffffffffffffffffffffffffffff169050919050565b600080600084815260200190815260200160002060070160008373ffffffffffffffffffffffffffffffffffffffff1673ffffffffffffffffffffffffffffffffffffffff16815260200190815260200160002054905092915050565b6060600080838152602001908152602001600020600501805480602002602001604051908101604052809291908181526020018280548015610b0757602002820191906000526020600020905b8160009054906101000a900473ffffffffffffffffffffffffffffffffffffffff1673ffffffffffffffffffffffffffffffffffffffff1681526020019060010190808311610abd575b50505050509050919050565b6000808281526020019081526020016000206005013390806001815401808255809150509060018203906000526020600020016000909192909190916101000a81548173ffffffffffffffffffffffffffffffffffffffff021916908373ffffffffffffffffffffffffffffffffffffffff16021790555050600260008083815260200190815260200160002060070160003373ffffffffffffffffffffffffffffffffffffffff1673ffffffffffffffffffffffffffffffffffffffff1681526020019081526020016000208190555060028060003373ffffffffffffffffffffffffffffffffffffffff1673ffffffffffffffffffffffffffffffffffffffff16815260200190815260200160002060030160008381526020019081526020016000208190555050565b600080600090505b60008084815260200190815260200160002060050180549050811015610cfc573373ffffffffffffffffffffffffffffffffffffffff166000808581526020019081526020016000206005018281548110610c9e57fe5b9060005260206000200160009054906101000a900473ffffffffffffffffffffffffffffffffffffffff1673ffffffffffffffffffffffffffffffffffffffff161415610cef576001915050610d02565b8080600101915050610c47565b50600090505b919050565b60015481565b80600260008473ffffffffffffffffffffffffffffffffffffffff1673ffffffffffffffffffffffffffffffffffffffff1681526020019081526020016000206003016000858152602001908152602001600020819055508060008085815260200190815260200160002060070160008473ffffffffffffffffffffffffffffffffffffffff1673ffffffffffffffffffffffffffffffffffffffff16815260200190815260200160002081905550505050565b60036000815460010191905081905550610dd961131b565b60405180606001604052803373ffffffffffffffffffffffffffffffffffffffff16815260200183815260200160011515815250905080600260003373ffffffffffffffffffffffffffffffffffffffff1673ffffffffffffffffffffffffffffffffffffffff16815260200190815260200160002060008201518160000160006101000a81548173ffffffffffffffffffffffffffffffffffffffff021916908373ffffffffffffffffffffffffffffffffffffffff1602179055506020820151816001019080519060200190610eb2929190611354565b5060408201518160020160006101000a81548160ff0219169083151502179055509050505050565b6060600260008373ffffffffffffffffffffffffffffffffffffffff1673ffffffffffffffffffffffffffffffffffffffff1681526020019081526020016000206001018054600181600116156101000203166002900480601f016020809104026020016040519081016040528092919081815260200182805460018160011615610100020316600290048015610fb25780601f10610f8757610100808354040283529160200191610fb2565b820191906000526020600020905b815481529060010190602001808311610f9557829003601f168201915b50505050509050919050565b60006020528060005260406000206000915090508060000154908060010160009054906101000a900473ffffffffffffffffffffffffffffffffffffffff1690806002018054600181600116156101000203166002900480601f0160208091040260200160405190810160405280929190818152602001828054600181600116156101000203166002900480156110965780601f1061106b57610100808354040283529160200191611096565b820191906000526020600020905b81548152906001019060200180831161107957829003601f168201915b505050505090806003018054600181600116156101000203166002900480601f0160208091040260200160405190810160405280929190818152602001828054600181600116156101000203166002900480156111345780601f1061110957610100808354040283529160200191611134565b820191906000526020600020905b81548152906001019060200180831161111757829003601f168201915b5050505050908060060160009054906101000a900460ff16905085565b600160008154600101919050819055506111696113d4565b6040518060e0016040528060015481526020013373ffffffffffffffffffffffffffffffffffffffff16815260200184815260200183815260200160006040519080825280602002602001820160405280156111d45781602001602082028038833980820191505090505b508152602001600060405190808252806020026020018201604052801561120a5781602001602082028038833980820191505090505b5081526020016001151581525090508060008060015481526020019081526020016000206000820151816000015560208201518160010160006101000a81548173ffffffffffffffffffffffffffffffffffffffff021916908373ffffffffffffffffffffffffffffffffffffffff160217905550604082015181600201908051906020019061129b929190611354565b5060608201518160030190805190602001906112b8929190611354565b5060808201518160040190805190602001906112d5929190611429565b5060a08201518160050190805190602001906112f2929190611429565b5060c08201518160060160006101000a81548160ff021916908315150217905550905050505050565b6040518060600160405280600073ffffffffffffffffffffffffffffffffffffffff168152602001606081526020016000151581525090565b828054600181600116156101000203166002900490600052602060002090601f016020900481019282601f1061139557805160ff19168380011785556113c3565b828001600101855582156113c3579182015b828111156113c25782518255916020019190600101906113a7565b5b5090506113d091906114b3565b5090565b6040518060e0016040528060008152602001600073ffffffffffffffffffffffffffffffffffffffff168152602001606081526020016060815260200160608152602001606081526020016000151581525090565b8280548282559060005260206000209081019282156114a2579160200282015b828111156114a15782518260006101000a81548173ffffffffffffffffffffffffffffffffffffffff021916908373ffffffffffffffffffffffffffffffffffffffff16021790555091602001919060010190611449565b5b5090506114af91906114d8565b5090565b6114d591905b808211156114d15760008160009055506001016114b9565b5090565b90565b61151891905b8082111561151457600081816101000a81549073ffffffffffffffffffffffffffffffffffffffff0219169055506001016114de565b5090565b9056fea265627a7a72315820163ebef3c912269396e5d09090c79a30365ab264e307f10848943ebdfae1ee0364736f6c63430005100032",
  "source": "pragma solidity ^0.5.16;\n\ncontract Athenomics {\n\n\t// Create a Genome container\n\tstruct Genome {\n\t\tuint index;\n\t\taddress owner;\n\t\tstring seq;\n\t\tstring source_type;\n\t\taddress[] shared;\n\t\taddress[] open_requests;\n\t\tbool exists;\n\t\t// 1=rejected, 2=open, 3=accepted\n\t\tmapping(address => uint) open_requests_status;\n\t}\n\n\tstruct Member {\n\t\taddress memAddress;\n\t\tstring institution;\n\t\tbool exists;\n\t\t// values 2=open, 1=rejected, 3=accepted\n\t\tmapping(uint => uint) requests;\n\t}\n\n\t// additions to mappings and address arrays changes state of contract.\n\t// changing state of contract means writing to blockchain\n\t\n\t// mapping of publically available genomes to be bid on via id\n\t// Can be 1 address/multiple genomes\n\tmapping(uint => Genome) public genomes;\n\tuint public genomesCount;\n\n\t// pubGenomesCount + privGenomesCount == genomesCount;\n\n\t// list of addresses of entities that may request genomes\n\t// Only 1 address/each member\n\tmapping(address => Member) public members;\n\tuint public membersCount;\n\n\n\t// voted event\n\t// keep for reference\n\t// event votedEvent (\n //        uint indexed _candidateId\n //    );\n\n\tconstructor() public {}\n\n\t// add genome to genome mapping\n\tfunction addGenome(string memory _seq, string memory _source) public {\n\t\t++genomesCount;\n\t\tGenome memory _genome = Genome(genomesCount, msg.sender, _seq, _source, new address[](0), new address[](0), true);\n\t\tgenomes[genomesCount] = _genome;\n\t}\n\t// add member to member mapping\n\tfunction addMember(string memory _ins) public {\n\t\t++membersCount;\n\t\tMember memory _member = Member(msg.sender, _ins, true);\n\t\tmembers[msg.sender] = _member;\n\t}\n\n\tfunction addRequest(uint genome_owner) public {\n\t\tgenomes[genome_owner].open_requests.push(msg.sender);\n\t\tgenomes[genome_owner].open_requests_status[msg.sender] = 2;\n\t\t// Create a request in the member requests field\n\t\tmembers[msg.sender].requests[genome_owner] = 2;\n\n\t}\n\n\tfunction getGenomeRequests(uint genome_owner) public view returns (address[] memory) {\n\t\treturn genomes[genome_owner].open_requests;\n\t}\n\n\tfunction getGenomeRequestStatus(uint genome_owner, address member) public view returns (uint) {\n\t\treturn genomes[genome_owner].open_requests_status[member];\n\t}\n\n\tfunction checkGenomeRequestExists(uint genome_owner) public view returns (bool) {\n\t\tfor(uint i = 0; i < genomes[genome_owner].open_requests.length; i++){\n\t\t\tif(genomes[genome_owner].open_requests[i] == msg.sender) {\n\t\t\t\treturn true;\n\t\t\t}\n\t\t}\n\t\treturn false;\n\t}\n\n\tfunction changeRequest(uint genome_index, address member, uint change) public {\n\t\tmembers[member].requests[genome_index] = change;\n\t\tgenomes[genome_index].open_requests_status[member] = change;\n\t}\n\n\tfunction getMemberName(address memAddress) public view returns (string memory) {\n\t\treturn members[memAddress].institution;\n\t}\n\n\tfunction getGenomeOwner(uint genome_index) public view returns (address) {\n\t\treturn genomes[genome_index].owner;\n\t}\n\n\tfunction checkMemberExists() public view returns (bool) {\n\t\treturn members[msg.sender].exists;\n\t}\n\n\t// Add candidates to candidates mapping\n\t// function addCandidate(string memory _name) private {\n\t// \t++candidatesCount;\n\t// \tcandidates[candidatesCount] = Candidate(candidatesCount, _name, 0);\n\t// }\n\n\t// function vote(uint _candidateId) public {\n\t// \t// check for voted before\n\t// \trequire(!voters[msg.sender]);\n\t// \t// check for valid candidate\n\t// \trequire(_candidateId > 0 && _candidateId <= candidatesCount); \n\t// \t// record that voter has voted\n\t// \t// metadata that gets passed (msg), account from which function call sent (sender)\n\t// \tvoters[msg.sender] =true;\n\t// \t// update candidate voteCount\n\t// \tcandidates[_candidateId].voteCount++;\n\t// }\n}",
  "sourcePath": "/Users/wbarakzai/Documents/1.Spring20/Athenomics/src/contracts/Athenomics.sol",
  "compiler": {
    "name": "solc",
    "version": "0.5.16+commit.9c3226ce.Emscripten.clang"
  },
  "schemaVersion": "3.0.23",
  "updatedAt": "2020-04-17T21:44:34.526Z",
  "networkType": "ethereum",
  "devdoc": {
    "methods": {}
  },
  "userdoc": {
    "methods": {}
  }
}